{
  "_format": "hh-sol-artifact-1",
  "contractName": "NFTMarketplace",
  "sourceName": "contracts/NFTMarketplace.sol",
  "abi": [
    {
      "inputs": [],
      "stateMutability": "nonpayable",
      "type": "constructor"
    },
    {
      "inputs": [
        {
          "internalType": "address",
          "name": "sender",
          "type": "address"
        },
        {
          "internalType": "uint256",
          "name": "tokenId",
          "type": "uint256"
        },
        {
          "internalType": "address",
          "name": "owner",
          "type": "address"
        }
      ],
      "name": "ERC721IncorrectOwner",
      "type": "error"
    },
    {
      "inputs": [
        {
          "internalType": "address",
          "name": "operator",
          "type": "address"
        },
        {
          "internalType": "uint256",
          "name": "tokenId",
          "type": "uint256"
        }
      ],
      "name": "ERC721InsufficientApproval",
      "type": "error"
    },
    {
      "inputs": [
        {
          "internalType": "address",
          "name": "approver",
          "type": "address"
        }
      ],
      "name": "ERC721InvalidApprover",
      "type": "error"
    },
    {
      "inputs": [
        {
          "internalType": "address",
          "name": "operator",
          "type": "address"
        }
      ],
      "name": "ERC721InvalidOperator",
      "type": "error"
    },
    {
      "inputs": [
        {
          "internalType": "address",
          "name": "owner",
          "type": "address"
        }
      ],
      "name": "ERC721InvalidOwner",
      "type": "error"
    },
    {
      "inputs": [
        {
          "internalType": "address",
          "name": "receiver",
          "type": "address"
        }
      ],
      "name": "ERC721InvalidReceiver",
      "type": "error"
    },
    {
      "inputs": [
        {
          "internalType": "address",
          "name": "sender",
          "type": "address"
        }
      ],
      "name": "ERC721InvalidSender",
      "type": "error"
    },
    {
      "inputs": [
        {
          "internalType": "uint256",
          "name": "tokenId",
          "type": "uint256"
        }
      ],
      "name": "ERC721NonexistentToken",
      "type": "error"
    },
    {
      "anonymous": false,
      "inputs": [
        {
          "indexed": true,
          "internalType": "address",
          "name": "owner",
          "type": "address"
        },
        {
          "indexed": true,
          "internalType": "address",
          "name": "approved",
          "type": "address"
        },
        {
          "indexed": true,
          "internalType": "uint256",
          "name": "tokenId",
          "type": "uint256"
        }
      ],
      "name": "Approval",
      "type": "event"
    },
    {
      "anonymous": false,
      "inputs": [
        {
          "indexed": true,
          "internalType": "address",
          "name": "owner",
          "type": "address"
        },
        {
          "indexed": true,
          "internalType": "address",
          "name": "operator",
          "type": "address"
        },
        {
          "indexed": false,
          "internalType": "bool",
          "name": "approved",
          "type": "bool"
        }
      ],
      "name": "ApprovalForAll",
      "type": "event"
    },
    {
      "anonymous": false,
      "inputs": [
        {
          "indexed": false,
          "internalType": "uint256",
          "name": "_fromTokenId",
          "type": "uint256"
        },
        {
          "indexed": false,
          "internalType": "uint256",
          "name": "_toTokenId",
          "type": "uint256"
        }
      ],
      "name": "BatchMetadataUpdate",
      "type": "event"
    },
    {
      "anonymous": false,
      "inputs": [
        {
          "indexed": false,
          "internalType": "uint256",
          "name": "_tokenId",
          "type": "uint256"
        }
      ],
      "name": "MetadataUpdate",
      "type": "event"
    },
    {
      "anonymous": false,
      "inputs": [
        {
          "indexed": true,
          "internalType": "address",
          "name": "from",
          "type": "address"
        },
        {
          "indexed": true,
          "internalType": "address",
          "name": "to",
          "type": "address"
        },
        {
          "indexed": true,
          "internalType": "uint256",
          "name": "tokenId",
          "type": "uint256"
        }
      ],
      "name": "Transfer",
      "type": "event"
    },
    {
      "anonymous": false,
      "inputs": [
        {
          "indexed": true,
          "internalType": "uint256",
          "name": "tokenId",
          "type": "uint256"
        },
        {
          "indexed": false,
          "internalType": "address",
          "name": "seller",
          "type": "address"
        },
        {
          "indexed": false,
          "internalType": "address",
          "name": "owner",
          "type": "address"
        },
        {
          "indexed": false,
          "internalType": "uint256",
          "name": "price",
          "type": "uint256"
        },
        {
          "indexed": false,
          "internalType": "bool",
          "name": "sold",
          "type": "bool"
        }
      ],
      "name": "idMarketItemCreated",
      "type": "event"
    },
    {
      "inputs": [
        {
          "internalType": "address",
          "name": "to",
          "type": "address"
        },
        {
          "internalType": "uint256",
          "name": "tokenId",
          "type": "uint256"
        }
      ],
      "name": "approve",
      "outputs": [],
      "stateMutability": "nonpayable",
      "type": "function"
    },
    {
      "inputs": [
        {
          "internalType": "address",
          "name": "owner",
          "type": "address"
        }
      ],
      "name": "balanceOf",
      "outputs": [
        {
          "internalType": "uint256",
          "name": "",
          "type": "uint256"
        }
      ],
      "stateMutability": "view",
      "type": "function"
    },
    {
      "inputs": [
        {
          "internalType": "uint256",
          "name": "tokenId",
          "type": "uint256"
        }
      ],
      "name": "createMarketSale",
      "outputs": [],
      "stateMutability": "payable",
      "type": "function"
    },
    {
      "inputs": [
        {
          "internalType": "string",
          "name": "tokenURI",
          "type": "string"
        },
        {
          "internalType": "uint256",
          "name": "price",
          "type": "uint256"
        }
      ],
      "name": "createToken",
      "outputs": [
        {
          "internalType": "uint256",
          "name": "",
          "type": "uint256"
        }
      ],
      "stateMutability": "payable",
      "type": "function"
    },
    {
      "inputs": [],
      "name": "fetchItemsListed",
      "outputs": [
        {
          "components": [
            {
              "internalType": "uint256",
              "name": "tokenId",
              "type": "uint256"
            },
            {
              "internalType": "address payable",
              "name": "seller",
              "type": "address"
            },
            {
              "internalType": "address payable",
              "name": "owner",
              "type": "address"
            },
            {
              "internalType": "uint256",
              "name": "price",
              "type": "uint256"
            },
            {
              "internalType": "bool",
              "name": "sold",
              "type": "bool"
            }
          ],
          "internalType": "struct NFTMarketplace.MarketItem[]",
          "name": "",
          "type": "tuple[]"
        }
      ],
      "stateMutability": "view",
      "type": "function"
    },
    {
      "inputs": [],
      "name": "fetchMarketItem",
      "outputs": [
        {
          "components": [
            {
              "internalType": "uint256",
              "name": "tokenId",
              "type": "uint256"
            },
            {
              "internalType": "address payable",
              "name": "seller",
              "type": "address"
            },
            {
              "internalType": "address payable",
              "name": "owner",
              "type": "address"
            },
            {
              "internalType": "uint256",
              "name": "price",
              "type": "uint256"
            },
            {
              "internalType": "bool",
              "name": "sold",
              "type": "bool"
            }
          ],
          "internalType": "struct NFTMarketplace.MarketItem[]",
          "name": "",
          "type": "tuple[]"
        }
      ],
      "stateMutability": "view",
      "type": "function"
    },
    {
      "inputs": [],
      "name": "fetchMyNFT",
      "outputs": [
        {
          "components": [
            {
              "internalType": "uint256",
              "name": "tokenId",
              "type": "uint256"
            },
            {
              "internalType": "address payable",
              "name": "seller",
              "type": "address"
            },
            {
              "internalType": "address payable",
              "name": "owner",
              "type": "address"
            },
            {
              "internalType": "uint256",
              "name": "price",
              "type": "uint256"
            },
            {
              "internalType": "bool",
              "name": "sold",
              "type": "bool"
            }
          ],
          "internalType": "struct NFTMarketplace.MarketItem[]",
          "name": "",
          "type": "tuple[]"
        }
      ],
      "stateMutability": "view",
      "type": "function"
    },
    {
      "inputs": [
        {
          "internalType": "uint256",
          "name": "tokenId",
          "type": "uint256"
        }
      ],
      "name": "getApproved",
      "outputs": [
        {
          "internalType": "address",
          "name": "",
          "type": "address"
        }
      ],
      "stateMutability": "view",
      "type": "function"
    },
    {
      "inputs": [],
      "name": "getListingPrice",
      "outputs": [
        {
          "internalType": "uint256",
          "name": "",
          "type": "uint256"
        }
      ],
      "stateMutability": "view",
      "type": "function"
    },
    {
      "inputs": [
        {
          "internalType": "address",
          "name": "owner",
          "type": "address"
        },
        {
          "internalType": "address",
          "name": "operator",
          "type": "address"
        }
      ],
      "name": "isApprovedForAll",
      "outputs": [
        {
          "internalType": "bool",
          "name": "",
          "type": "bool"
        }
      ],
      "stateMutability": "view",
      "type": "function"
    },
    {
      "inputs": [],
      "name": "name",
      "outputs": [
        {
          "internalType": "string",
          "name": "",
          "type": "string"
        }
      ],
      "stateMutability": "view",
      "type": "function"
    },
    {
      "inputs": [
        {
          "internalType": "uint256",
          "name": "tokenId",
          "type": "uint256"
        }
      ],
      "name": "ownerOf",
      "outputs": [
        {
          "internalType": "address",
          "name": "",
          "type": "address"
        }
      ],
      "stateMutability": "view",
      "type": "function"
    },
    {
      "inputs": [
        {
          "internalType": "uint256",
          "name": "tokenId",
          "type": "uint256"
        },
        {
          "internalType": "uint256",
          "name": "price",
          "type": "uint256"
        }
      ],
      "name": "reSellToken",
      "outputs": [],
      "stateMutability": "payable",
      "type": "function"
    },
    {
      "inputs": [
        {
          "internalType": "address",
          "name": "from",
          "type": "address"
        },
        {
          "internalType": "address",
          "name": "to",
          "type": "address"
        },
        {
          "internalType": "uint256",
          "name": "tokenId",
          "type": "uint256"
        }
      ],
      "name": "safeTransferFrom",
      "outputs": [],
      "stateMutability": "nonpayable",
      "type": "function"
    },
    {
      "inputs": [
        {
          "internalType": "address",
          "name": "from",
          "type": "address"
        },
        {
          "internalType": "address",
          "name": "to",
          "type": "address"
        },
        {
          "internalType": "uint256",
          "name": "tokenId",
          "type": "uint256"
        },
        {
          "internalType": "bytes",
          "name": "data",
          "type": "bytes"
        }
      ],
      "name": "safeTransferFrom",
      "outputs": [],
      "stateMutability": "nonpayable",
      "type": "function"
    },
    {
      "inputs": [
        {
          "internalType": "address",
          "name": "operator",
          "type": "address"
        },
        {
          "internalType": "bool",
          "name": "approved",
          "type": "bool"
        }
      ],
      "name": "setApprovalForAll",
      "outputs": [],
      "stateMutability": "nonpayable",
      "type": "function"
    },
    {
      "inputs": [
        {
          "internalType": "bytes4",
          "name": "interfaceId",
          "type": "bytes4"
        }
      ],
      "name": "supportsInterface",
      "outputs": [
        {
          "internalType": "bool",
          "name": "",
          "type": "bool"
        }
      ],
      "stateMutability": "view",
      "type": "function"
    },
    {
      "inputs": [],
      "name": "symbol",
      "outputs": [
        {
          "internalType": "string",
          "name": "",
          "type": "string"
        }
      ],
      "stateMutability": "view",
      "type": "function"
    },
    {
      "inputs": [
        {
          "internalType": "uint256",
          "name": "tokenId",
          "type": "uint256"
        }
      ],
      "name": "tokenURI",
      "outputs": [
        {
          "internalType": "string",
          "name": "",
          "type": "string"
        }
      ],
      "stateMutability": "view",
      "type": "function"
    },
    {
      "inputs": [
        {
          "internalType": "address",
          "name": "from",
          "type": "address"
        },
        {
          "internalType": "address",
          "name": "to",
          "type": "address"
        },
        {
          "internalType": "uint256",
          "name": "tokenId",
          "type": "uint256"
        }
      ],
      "name": "transferFrom",
      "outputs": [],
      "stateMutability": "nonpayable",
      "type": "function"
    },
    {
      "inputs": [
        {
          "internalType": "uint256",
          "name": "_listingPrice",
          "type": "uint256"
        }
      ],
      "name": "updateListingPrice",
      "outputs": [],
      "stateMutability": "payable",
      "type": "function"
    }
  ],
  "bytecode": "0x60806040526605543df729c0006009553480156200001c57600080fd5b506040518060400160405280601381526020017f4e4654204d657461766172736520546f6b656e000000000000000000000000008152506040518060400160405280600581526020017f4d594e465400000000000000000000000000000000000000000000000000000081525081600090816200009a919062000355565b508060019081620000ac919062000355565b5050503373ffffffffffffffffffffffffffffffffffffffff16600a60009054906101000a905050506200043c565b600081519050919050565b7f4e487b7100000000000000000000000000000000000000000000000000000000600052604160045260246000fd5b7f4e487b7100000000000000000000000000000000000000000000000000000000600052602260045260246000fd5b600060028204905060018216806200015d57607f821691505b60208210810362000173576200017262000115565b5b50919050565b60008190508160005260206000209050919050565b60006020601f8301049050919050565b600082821b905092915050565b600060088302620001dd7fffffffffffffffffffffffffffffffffffffffffffffffffffffffffffffffff826200019e565b620001e986836200019e565b95508019841693508086168417925050509392505050565b6000819050919050565b6000819050919050565b600062000236620002306200022a8462000201565b6200020b565b62000201565b9050919050565b6000819050919050565b620002528362000215565b6200026a62000261826200023d565b848454620001ab565b825550505050565b600090565b6200028162000272565b6200028e81848462000247565b505050565b5b81811015620002b657620002aa60008262000277565b60018101905062000294565b5050565b601f8211156200030557620002cf8162000179565b620002da846200018e565b81016020851015620002ea578190505b62000302620002f9856200018e565b83018262000293565b50505b505050565b600082821c905092915050565b60006200032a600019846008026200030a565b1980831691505092915050565b600062000345838362000317565b9150826002028217905092915050565b6200036082620000db565b67ffffffffffffffff8111156200037c576200037b620000e6565b5b62000388825462000144565b62000395828285620002ba565b600060209050601f831160018114620003cd5760008415620003b8578287015190505b620003c4858262000337565b86555062000434565b601f198416620003dd8662000179565b60005b828110156200040757848901518255600182019150602085019450602081019050620003e0565b8683101562000427578489015162000423601f89168262000317565b8355505b6001600288020188555050505b505050505050565b613d51806200044c6000396000f3fe60806040526004361061012a5760003560e01c806372b3b620116100ab578063ae677aa31161006f578063ae677aa3146103ea578063b88d4fde14610406578063be9af5361461042f578063c18763f71461044b578063c87b56dd14610476578063e985e9c5146104b35761012a565b806372b3b6201461031f57806385535b251461034f5780638fafd0211461036b57806395d89b4114610396578063a22cb465146103c15761012a565b806323b872dd116100f257806323b872dd1461022857806342842e0e1461025157806345f8fa801461027a5780636352211e146102a557806370a08231146102e25761012a565b806301ffc9a71461012f57806306fdde031461016c578063081812fc14610197578063095ea7b3146101d457806312e85585146101fd575b600080fd5b34801561013b57600080fd5b5061015660048036038101906101519190612b63565b6104f0565b6040516101639190612bab565b60405180910390f35b34801561017857600080fd5b50610181610551565b60405161018e9190612c56565b60405180910390f35b3480156101a357600080fd5b506101be60048036038101906101b99190612cae565b6105e3565b6040516101cb9190612d1c565b60405180910390f35b3480156101e057600080fd5b506101fb60048036038101906101f69190612d63565b6105ff565b005b34801561020957600080fd5b50610212610615565b60405161021f9190612db2565b60405180910390f35b34801561023457600080fd5b5061024f600480360381019061024a9190612dcd565b61061f565b005b34801561025d57600080fd5b5061027860048036038101906102739190612dcd565b610721565b005b34801561028657600080fd5b5061028f610741565b60405161029c9190612f76565b60405180910390f35b3480156102b157600080fd5b506102cc60048036038101906102c79190612cae565b610a2d565b6040516102d99190612d1c565b60405180910390f35b3480156102ee57600080fd5b5061030960048036038101906103049190612f98565b610a3f565b6040516103169190612db2565b60405180910390f35b610339600480360381019061033491906130fa565b610af9565b6040516103469190612db2565b60405180910390f35b61036960048036038101906103649190613156565b610b3b565b005b34801561037757600080fd5b50610380610d30565b60405161038d9190612f76565b60405180910390f35b3480156103a257600080fd5b506103ab610f98565b6040516103b89190612c56565b60405180910390f35b3480156103cd57600080fd5b506103e860048036038101906103e391906131c2565b61102a565b005b61040460048036038101906103ff9190612cae565b611040565b005b34801561041257600080fd5b5061042d600480360381019061042891906132a3565b6110da565b005b61044960048036038101906104449190612cae565b6110f7565b005b34801561045757600080fd5b5061046061132f565b60405161046d9190612f76565b60405180910390f35b34801561048257600080fd5b5061049d60048036038101906104989190612cae565b61161b565b6040516104aa9190612c56565b60405180910390f35b3480156104bf57600080fd5b506104da60048036038101906104d59190613326565b61172e565b6040516104e79190612bab565b60405180910390f35b6000634906490660e01b7bffffffffffffffffffffffffffffffffffffffffffffffffffffffff1916827bffffffffffffffffffffffffffffffffffffffffffffffffffffffff1916148061054a5750610549826117c2565b5b9050919050565b60606000805461056090613395565b80601f016020809104026020016040519081016040528092919081815260200182805461058c90613395565b80156105d95780601f106105ae576101008083540402835291602001916105d9565b820191906000526020600020905b8154815290600101906020018083116105bc57829003601f168201915b5050505050905090565b60006105ee826118a4565b506105f88261192c565b9050919050565b610611828261060c611969565b611971565b5050565b6000600954905090565b600073ffffffffffffffffffffffffffffffffffffffff168273ffffffffffffffffffffffffffffffffffffffff16036106915760006040517f64a0ae920000000000000000000000000000000000000000000000000000000081526004016106889190612d1c565b60405180910390fd5b60006106a583836106a0611969565b611983565b90508373ffffffffffffffffffffffffffffffffffffffff168173ffffffffffffffffffffffffffffffffffffffff161461071b578382826040517f64283d7b000000000000000000000000000000000000000000000000000000008152600401610712939291906133c6565b60405180910390fd5b50505050565b61073c838383604051806020016040528060008152506110da565b505050565b6060600061074f6007611b9d565b905060008060005b838110156107f7573373ffffffffffffffffffffffffffffffffffffffff16600b6000600184610787919061342c565b815260200190815260200160002060010160009054906101000a900473ffffffffffffffffffffffffffffffffffffffff1673ffffffffffffffffffffffffffffffffffffffff16036107e4576001836107e1919061342c565b92505b80806107ef90613460565b915050610757565b5060008267ffffffffffffffff81111561081457610813612fcf565b5b60405190808252806020026020018201604052801561084d57816020015b61083a612a9a565b8152602001906001900390816108325790505b50905060005b84811015610a22573373ffffffffffffffffffffffffffffffffffffffff16600b6000600184610883919061342c565b815260200190815260200160002060010160009054906101000a900473ffffffffffffffffffffffffffffffffffffffff1673ffffffffffffffffffffffffffffffffffffffff1603610a0f5760006001826108df919061342c565b90506000600b60008381526020019081526020016000209050806040518060a0016040529081600082015481526020016001820160009054906101000a900473ffffffffffffffffffffffffffffffffffffffff1673ffffffffffffffffffffffffffffffffffffffff1673ffffffffffffffffffffffffffffffffffffffff1681526020016002820160009054906101000a900473ffffffffffffffffffffffffffffffffffffffff1673ffffffffffffffffffffffffffffffffffffffff1673ffffffffffffffffffffffffffffffffffffffff168152602001600382015481526020016004820160009054906101000a900460ff1615151515815250508486815181106109f2576109f16134a8565b5b6020026020010181905250600185610a0a919061342c565b945050505b8080610a1a90613460565b915050610853565b508094505050505090565b6000610a38826118a4565b9050919050565b60008073ffffffffffffffffffffffffffffffffffffffff168273ffffffffffffffffffffffffffffffffffffffff1603610ab25760006040517f89c62b64000000000000000000000000000000000000000000000000000000008152600401610aa99190612d1c565b60405180910390fd5b600360008373ffffffffffffffffffffffffffffffffffffffff1673ffffffffffffffffffffffffffffffffffffffff168152602001908152602001600020549050919050565b6000610b056007611bab565b6000610b116007611b9d565b9050610b1d3382611bc1565b610b278185611cba565b610b318184611d16565b8091505092915050565b3373ffffffffffffffffffffffffffffffffffffffff16600b600084815260200190815260200160002060020160009054906101000a900473ffffffffffffffffffffffffffffffffffffffff1673ffffffffffffffffffffffffffffffffffffffff1614610bdf576040517f08c379a0000000000000000000000000000000000000000000000000000000008152600401610bd690613549565b60405180910390fd5b6009543414610c23576040517f08c379a0000000000000000000000000000000000000000000000000000000008152600401610c1a906135db565b60405180910390fd5b6000600b600084815260200190815260200160002060040160006101000a81548160ff02191690831515021790555080600b60008481526020019081526020016000206003018190555033600b600084815260200190815260200160002060010160006101000a81548173ffffffffffffffffffffffffffffffffffffffff021916908373ffffffffffffffffffffffffffffffffffffffff16021790555030600b600084815260200190815260200160002060020160006101000a81548173ffffffffffffffffffffffffffffffffffffffff021916908373ffffffffffffffffffffffffffffffffffffffff160217905550610d216008611f19565b610d2c333084611f75565b5050565b60606000610d3e6007611b9d565b90506000610d4c6008611b9d565b610d566007611b9d565b610d6091906135fb565b90506000808267ffffffffffffffff811115610d7f57610d7e612fcf565b5b604051908082528060200260200182016040528015610db857816020015b610da5612a9a565b815260200190600190039081610d9d5790505b50905060005b84811015610f8d573073ffffffffffffffffffffffffffffffffffffffff16600b6000600184610dee919061342c565b815260200190815260200160002060020160009054906101000a900473ffffffffffffffffffffffffffffffffffffffff1673ffffffffffffffffffffffffffffffffffffffff1603610f7a576000600182610e4a919061342c565b90506000600b60008381526020019081526020016000209050806040518060a0016040529081600082015481526020016001820160009054906101000a900473ffffffffffffffffffffffffffffffffffffffff1673ffffffffffffffffffffffffffffffffffffffff1673ffffffffffffffffffffffffffffffffffffffff1681526020016002820160009054906101000a900473ffffffffffffffffffffffffffffffffffffffff1673ffffffffffffffffffffffffffffffffffffffff1673ffffffffffffffffffffffffffffffffffffffff168152602001600382015481526020016004820160009054906101000a900460ff161515151581525050848681518110610f5d57610f5c6134a8565b5b6020026020010181905250600185610f75919061342c565b945050505b8080610f8590613460565b915050610dbe565b508094505050505090565b606060018054610fa790613395565b80601f0160208091040260200160405190810160405280929190818152602001828054610fd390613395565b80156110205780601f10610ff557610100808354040283529160200191611020565b820191906000526020600020905b81548152906001019060200180831161100357829003601f168201915b5050505050905090565b61103c611035611969565b83836120e2565b5050565b600a60009054906101000a900473ffffffffffffffffffffffffffffffffffffffff1673ffffffffffffffffffffffffffffffffffffffff163373ffffffffffffffffffffffffffffffffffffffff16146110d0576040517f08c379a00000000000000000000000000000000000000000000000000000000081526004016110c7906136a1565b60405180910390fd5b8060098190555050565b6110e584848461061f565b6110f184848484612251565b50505050565b6000600b6000838152602001908152602001600020600301549050803414611154576040517f08c379a000000000000000000000000000000000000000000000000000000000815260040161114b90613733565b60405180910390fd5b33600b600084815260200190815260200160002060020160006101000a81548173ffffffffffffffffffffffffffffffffffffffff021916908373ffffffffffffffffffffffffffffffffffffffff1602179055506001600b600084815260200190815260200160002060040160006101000a81548160ff0219169083151502179055506000600b600084815260200190815260200160002060020160006101000a81548173ffffffffffffffffffffffffffffffffffffffff021916908373ffffffffffffffffffffffffffffffffffffffff1602179055506112386008611bab565b611243303384611f75565b600a60009054906101000a900473ffffffffffffffffffffffffffffffffffffffff1673ffffffffffffffffffffffffffffffffffffffff166108fc6009549081150290604051600060405180830381858888f193505050501580156112ad573d6000803e3d6000fd5b50600b600083815260200190815260200160002060010160009054906101000a900473ffffffffffffffffffffffffffffffffffffffff1673ffffffffffffffffffffffffffffffffffffffff166108fc349081150290604051600060405180830381858888f1935050505015801561132a573d6000803e3d6000fd5b505050565b6060600061133d6007611b9d565b905060008060005b838110156113e5573373ffffffffffffffffffffffffffffffffffffffff16600b6000600184611375919061342c565b815260200190815260200160002060020160009054906101000a900473ffffffffffffffffffffffffffffffffffffffff1673ffffffffffffffffffffffffffffffffffffffff16036113d2576001836113cf919061342c565b92505b80806113dd90613460565b915050611345565b5060008267ffffffffffffffff81111561140257611401612fcf565b5b60405190808252806020026020018201604052801561143b57816020015b611428612a9a565b8152602001906001900390816114205790505b50905060005b84811015611610573373ffffffffffffffffffffffffffffffffffffffff16600b6000600184611471919061342c565b815260200190815260200160002060020160009054906101000a900473ffffffffffffffffffffffffffffffffffffffff1673ffffffffffffffffffffffffffffffffffffffff16036115fd5760006001826114cd919061342c565b90506000600b60008381526020019081526020016000209050806040518060a0016040529081600082015481526020016001820160009054906101000a900473ffffffffffffffffffffffffffffffffffffffff1673ffffffffffffffffffffffffffffffffffffffff1673ffffffffffffffffffffffffffffffffffffffff1681526020016002820160009054906101000a900473ffffffffffffffffffffffffffffffffffffffff1673ffffffffffffffffffffffffffffffffffffffff1673ffffffffffffffffffffffffffffffffffffffff168152602001600382015481526020016004820160009054906101000a900460ff1615151515815250508486815181106115e0576115df6134a8565b5b60200260200101819052506001856115f8919061342c565b945050505b808061160890613460565b915050611441565b508094505050505090565b6060611626826118a4565b50600060066000848152602001908152602001600020805461164790613395565b80601f016020809104026020016040519081016040528092919081815260200182805461167390613395565b80156116c05780601f10611695576101008083540402835291602001916116c0565b820191906000526020600020905b8154815290600101906020018083116116a357829003601f168201915b5050505050905060006116d1612408565b905060008151036116e6578192505050611729565b60008251111561171b57808260405160200161170392919061378f565b60405160208183030381529060405292505050611729565b6117248461241f565b925050505b919050565b6000600560008473ffffffffffffffffffffffffffffffffffffffff1673ffffffffffffffffffffffffffffffffffffffff16815260200190815260200160002060008373ffffffffffffffffffffffffffffffffffffffff1673ffffffffffffffffffffffffffffffffffffffff16815260200190815260200160002060009054906101000a900460ff16905092915050565b60007f80ac58cd000000000000000000000000000000000000000000000000000000007bffffffffffffffffffffffffffffffffffffffffffffffffffffffff1916827bffffffffffffffffffffffffffffffffffffffffffffffffffffffff1916148061188d57507f5b5e139f000000000000000000000000000000000000000000000000000000007bffffffffffffffffffffffffffffffffffffffffffffffffffffffff1916827bffffffffffffffffffffffffffffffffffffffffffffffffffffffff1916145b8061189d575061189c82612488565b5b9050919050565b6000806118b0836124f2565b9050600073ffffffffffffffffffffffffffffffffffffffff168173ffffffffffffffffffffffffffffffffffffffff160361192357826040517f7e27328900000000000000000000000000000000000000000000000000000000815260040161191a9190612db2565b60405180910390fd5b80915050919050565b60006004600083815260200190815260200160002060009054906101000a900473ffffffffffffffffffffffffffffffffffffffff169050919050565b600033905090565b61197e838383600161252f565b505050565b60008061198f846124f2565b9050600073ffffffffffffffffffffffffffffffffffffffff168373ffffffffffffffffffffffffffffffffffffffff16146119d1576119d08184866126f4565b5b600073ffffffffffffffffffffffffffffffffffffffff168173ffffffffffffffffffffffffffffffffffffffff1614611a6257611a1360008560008061252f565b6001600360008373ffffffffffffffffffffffffffffffffffffffff1673ffffffffffffffffffffffffffffffffffffffff168152602001908152602001600020600082825403925050819055505b600073ffffffffffffffffffffffffffffffffffffffff168573ffffffffffffffffffffffffffffffffffffffff1614611ae5576001600360008773ffffffffffffffffffffffffffffffffffffffff1673ffffffffffffffffffffffffffffffffffffffff168152602001908152602001600020600082825401925050819055505b846002600086815260200190815260200160002060006101000a81548173ffffffffffffffffffffffffffffffffffffffff021916908373ffffffffffffffffffffffffffffffffffffffff160217905550838573ffffffffffffffffffffffffffffffffffffffff168273ffffffffffffffffffffffffffffffffffffffff167fddf252ad1be2c89b69c2b068fc378daa952ba7f163c4a11628f55a4df523b3ef60405160405180910390a4809150509392505050565b600081600001549050919050565b6001816000016000828254019250508190555050565b600073ffffffffffffffffffffffffffffffffffffffff168273ffffffffffffffffffffffffffffffffffffffff1603611c335760006040517f64a0ae92000000000000000000000000000000000000000000000000000000008152600401611c2a9190612d1c565b60405180910390fd5b6000611c4183836000611983565b9050600073ffffffffffffffffffffffffffffffffffffffff168173ffffffffffffffffffffffffffffffffffffffff1614611cb55760006040517f73c6ac6e000000000000000000000000000000000000000000000000000000008152600401611cac9190612d1c565b60405180910390fd5b505050565b80600660008481526020019081526020016000209081611cda919061395f565b507ff8e1a15aba9398e019f0b49df1a4fde98ee17ae345cb5f6b5e2c27f5033e8ce782604051611d0a9190612db2565b60405180910390a15050565b60008111611d59576040517f08c379a0000000000000000000000000000000000000000000000000000000008152600401611d5090613a7d565b60405180910390fd5b6009543414611d9d576040517f08c379a0000000000000000000000000000000000000000000000000000000008152600401611d9490613b0f565b60405180910390fd5b6040518060a001604052808381526020013373ffffffffffffffffffffffffffffffffffffffff1681526020013073ffffffffffffffffffffffffffffffffffffffff16815260200182815260200160001515815250600b60008481526020019081526020016000206000820151816000015560208201518160010160006101000a81548173ffffffffffffffffffffffffffffffffffffffff021916908373ffffffffffffffffffffffffffffffffffffffff16021790555060408201518160020160006101000a81548173ffffffffffffffffffffffffffffffffffffffff021916908373ffffffffffffffffffffffffffffffffffffffff1602179055506060820151816003015560808201518160040160006101000a81548160ff021916908315150217905550905050611ed6333084611f75565b817fdebdb32cb5230ab727c9c361b16fdb2015df225c10e6a3e7f60ecd5dc5be45163330846000604051611f0d9493929190613b2f565b60405180910390a25050565b60008160000154905060008111611f65576040517f08c379a0000000000000000000000000000000000000000000000000000000008152600401611f5c90613bc0565b60405180910390fd5b6001810382600001819055505050565b600073ffffffffffffffffffffffffffffffffffffffff168273ffffffffffffffffffffffffffffffffffffffff1603611fe75760006040517f64a0ae92000000000000000000000000000000000000000000000000000000008152600401611fde9190612d1c565b60405180910390fd5b6000611ff583836000611983565b9050600073ffffffffffffffffffffffffffffffffffffffff168173ffffffffffffffffffffffffffffffffffffffff160361206857816040517f7e27328900000000000000000000000000000000000000000000000000000000815260040161205f9190612db2565b60405180910390fd5b8373ffffffffffffffffffffffffffffffffffffffff168173ffffffffffffffffffffffffffffffffffffffff16146120dc578382826040517f64283d7b0000000000000000000000000000000000000000000000000000000081526004016120d3939291906133c6565b60405180910390fd5b50505050565b600073ffffffffffffffffffffffffffffffffffffffff168273ffffffffffffffffffffffffffffffffffffffff160361215357816040517f5b08ba1800000000000000000000000000000000000000000000000000000000815260040161214a9190612d1c565b60405180910390fd5b80600560008573ffffffffffffffffffffffffffffffffffffffff1673ffffffffffffffffffffffffffffffffffffffff16815260200190815260200160002060008473ffffffffffffffffffffffffffffffffffffffff1673ffffffffffffffffffffffffffffffffffffffff16815260200190815260200160002060006101000a81548160ff0219169083151502179055508173ffffffffffffffffffffffffffffffffffffffff168373ffffffffffffffffffffffffffffffffffffffff167f17307eab39ab6107e8899845ad3d59bd9653f200f220920489ca2b5937696c31836040516122449190612bab565b60405180910390a3505050565b60008373ffffffffffffffffffffffffffffffffffffffff163b1115612402578273ffffffffffffffffffffffffffffffffffffffff1663150b7a02612295611969565b8685856040518563ffffffff1660e01b81526004016122b79493929190613c35565b6020604051808303816000875af19250505080156122f357506040513d601f19601f820116820180604052508101906122f09190613c96565b60015b612377573d8060008114612323576040519150601f19603f3d011682016040523d82523d6000602084013e612328565b606091505b50600081510361236f57836040517f64a0ae920000000000000000000000000000000000000000000000000000000081526004016123669190612d1c565b60405180910390fd5b805181602001fd5b63150b7a0260e01b7bffffffffffffffffffffffffffffffffffffffffffffffffffffffff1916817bffffffffffffffffffffffffffffffffffffffffffffffffffffffff19161461240057836040517f64a0ae920000000000000000000000000000000000000000000000000000000081526004016123f79190612d1c565b60405180910390fd5b505b50505050565b606060405180602001604052806000815250905090565b606061242a826118a4565b506000612435612408565b905060008151116124555760405180602001604052806000815250612480565b8061245f846127b8565b60405160200161247092919061378f565b6040516020818303038152906040525b915050919050565b60007f01ffc9a7000000000000000000000000000000000000000000000000000000007bffffffffffffffffffffffffffffffffffffffffffffffffffffffff1916827bffffffffffffffffffffffffffffffffffffffffffffffffffffffff1916149050919050565b60006002600083815260200190815260200160002060009054906101000a900473ffffffffffffffffffffffffffffffffffffffff169050919050565b80806125685750600073ffffffffffffffffffffffffffffffffffffffff168273ffffffffffffffffffffffffffffffffffffffff1614155b1561269c576000612578846118a4565b9050600073ffffffffffffffffffffffffffffffffffffffff168373ffffffffffffffffffffffffffffffffffffffff16141580156125e357508273ffffffffffffffffffffffffffffffffffffffff168173ffffffffffffffffffffffffffffffffffffffff1614155b80156125f657506125f4818461172e565b155b1561263857826040517fa9fbf51f00000000000000000000000000000000000000000000000000000000815260040161262f9190612d1c565b60405180910390fd5b811561269a57838573ffffffffffffffffffffffffffffffffffffffff168273ffffffffffffffffffffffffffffffffffffffff167f8c5be1e5ebec7d5bd14f71427d1e84f3dd0314c0f7b2291e5b200ac8c7c3b92560405160405180910390a45b505b836004600085815260200190815260200160002060006101000a81548173ffffffffffffffffffffffffffffffffffffffff021916908373ffffffffffffffffffffffffffffffffffffffff16021790555050505050565b6126ff838383612886565b6127b357600073ffffffffffffffffffffffffffffffffffffffff168373ffffffffffffffffffffffffffffffffffffffff160361277457806040517f7e27328900000000000000000000000000000000000000000000000000000000815260040161276b9190612db2565b60405180910390fd5b81816040517f177e802f0000000000000000000000000000000000000000000000000000000081526004016127aa929190613cc3565b60405180910390fd5b505050565b6060600060016127c784612947565b01905060008167ffffffffffffffff8111156127e6576127e5612fcf565b5b6040519080825280601f01601f1916602001820160405280156128185781602001600182028036833780820191505090505b509050600082602001820190505b60011561287b578080600190039150507f3031323334353637383961626364656600000000000000000000000000000000600a86061a8153600a858161286f5761286e613cec565b5b04945060008503612826575b819350505050919050565b60008073ffffffffffffffffffffffffffffffffffffffff168373ffffffffffffffffffffffffffffffffffffffff161415801561293e57508273ffffffffffffffffffffffffffffffffffffffff168473ffffffffffffffffffffffffffffffffffffffff1614806128ff57506128fe848461172e565b5b8061293d57508273ffffffffffffffffffffffffffffffffffffffff166129258361192c565b73ffffffffffffffffffffffffffffffffffffffff16145b5b90509392505050565b600080600090507a184f03e93ff9f4daa797ed6e38ed64bf6a1f01000000000000000083106129a5577a184f03e93ff9f4daa797ed6e38ed64bf6a1f010000000000000000838161299b5761299a613cec565b5b0492506040810190505b6d04ee2d6d415b85acef810000000083106129e2576d04ee2d6d415b85acef810000000083816129d8576129d7613cec565b5b0492506020810190505b662386f26fc100008310612a1157662386f26fc100008381612a0757612a06613cec565b5b0492506010810190505b6305f5e1008310612a3a576305f5e1008381612a3057612a2f613cec565b5b0492506008810190505b6127108310612a5f576127108381612a5557612a54613cec565b5b0492506004810190505b60648310612a825760648381612a7857612a77613cec565b5b0492506002810190505b600a8310612a91576001810190505b80915050919050565b6040518060a0016040528060008152602001600073ffffffffffffffffffffffffffffffffffffffff168152602001600073ffffffffffffffffffffffffffffffffffffffff168152602001600081526020016000151581525090565b6000604051905090565b600080fd5b600080fd5b60007fffffffff0000000000000000000000000000000000000000000000000000000082169050919050565b612b4081612b0b565b8114612b4b57600080fd5b50565b600081359050612b5d81612b37565b92915050565b600060208284031215612b7957612b78612b01565b5b6000612b8784828501612b4e565b91505092915050565b60008115159050919050565b612ba581612b90565b82525050565b6000602082019050612bc06000830184612b9c565b92915050565b600081519050919050565b600082825260208201905092915050565b60005b83811015612c00578082015181840152602081019050612be5565b60008484015250505050565b6000601f19601f8301169050919050565b6000612c2882612bc6565b612c328185612bd1565b9350612c42818560208601612be2565b612c4b81612c0c565b840191505092915050565b60006020820190508181036000830152612c708184612c1d565b905092915050565b6000819050919050565b612c8b81612c78565b8114612c9657600080fd5b50565b600081359050612ca881612c82565b92915050565b600060208284031215612cc457612cc3612b01565b5b6000612cd284828501612c99565b91505092915050565b600073ffffffffffffffffffffffffffffffffffffffff82169050919050565b6000612d0682612cdb565b9050919050565b612d1681612cfb565b82525050565b6000602082019050612d316000830184612d0d565b92915050565b612d4081612cfb565b8114612d4b57600080fd5b50565b600081359050612d5d81612d37565b92915050565b60008060408385031215612d7a57612d79612b01565b5b6000612d8885828601612d4e565b9250506020612d9985828601612c99565b9150509250929050565b612dac81612c78565b82525050565b6000602082019050612dc76000830184612da3565b92915050565b600080600060608486031215612de657612de5612b01565b5b6000612df486828701612d4e565b9350506020612e0586828701612d4e565b9250506040612e1686828701612c99565b9150509250925092565b600081519050919050565b600082825260208201905092915050565b6000819050602082019050919050565b612e5581612c78565b82525050565b6000612e6682612cdb565b9050919050565b612e7681612e5b565b82525050565b612e8581612b90565b82525050565b60a082016000820151612ea16000850182612e4c565b506020820151612eb46020850182612e6d565b506040820151612ec76040850182612e6d565b506060820151612eda6060850182612e4c565b506080820151612eed6080850182612e7c565b50505050565b6000612eff8383612e8b565b60a08301905092915050565b6000602082019050919050565b6000612f2382612e20565b612f2d8185612e2b565b9350612f3883612e3c565b8060005b83811015612f69578151612f508882612ef3565b9750612f5b83612f0b565b925050600181019050612f3c565b5085935050505092915050565b60006020820190508181036000830152612f908184612f18565b905092915050565b600060208284031215612fae57612fad612b01565b5b6000612fbc84828501612d4e565b91505092915050565b600080fd5b600080fd5b7f4e487b7100000000000000000000000000000000000000000000000000000000600052604160045260246000fd5b61300782612c0c565b810181811067ffffffffffffffff8211171561302657613025612fcf565b5b80604052505050565b6000613039612af7565b90506130458282612ffe565b919050565b600067ffffffffffffffff82111561306557613064612fcf565b5b61306e82612c0c565b9050602081019050919050565b82818337600083830152505050565b600061309d6130988461304a565b61302f565b9050828152602081018484840111156130b9576130b8612fca565b5b6130c484828561307b565b509392505050565b600082601f8301126130e1576130e0612fc5565b5b81356130f184826020860161308a565b91505092915050565b6000806040838503121561311157613110612b01565b5b600083013567ffffffffffffffff81111561312f5761312e612b06565b5b61313b858286016130cc565b925050602061314c85828601612c99565b9150509250929050565b6000806040838503121561316d5761316c612b01565b5b600061317b85828601612c99565b925050602061318c85828601612c99565b9150509250929050565b61319f81612b90565b81146131aa57600080fd5b50565b6000813590506131bc81613196565b92915050565b600080604083850312156131d9576131d8612b01565b5b60006131e785828601612d4e565b92505060206131f8858286016131ad565b9150509250929050565b600067ffffffffffffffff82111561321d5761321c612fcf565b5b61322682612c0c565b9050602081019050919050565b600061324661324184613202565b61302f565b90508281526020810184848401111561326257613261612fca565b5b61326d84828561307b565b509392505050565b600082601f83011261328a57613289612fc5565b5b813561329a848260208601613233565b91505092915050565b600080600080608085870312156132bd576132bc612b01565b5b60006132cb87828801612d4e565b94505060206132dc87828801612d4e565b93505060406132ed87828801612c99565b925050606085013567ffffffffffffffff81111561330e5761330d612b06565b5b61331a87828801613275565b91505092959194509250565b6000806040838503121561333d5761333c612b01565b5b600061334b85828601612d4e565b925050602061335c85828601612d4e565b9150509250929050565b7f4e487b7100000000000000000000000000000000000000000000000000000000600052602260045260246000fd5b600060028204905060018216806133ad57607f821691505b6020821081036133c0576133bf613366565b5b50919050565b60006060820190506133db6000830186612d0d565b6133e86020830185612da3565b6133f56040830184612d0d565b949350505050565b7f4e487b7100000000000000000000000000000000000000000000000000000000600052601160045260246000fd5b600061343782612c78565b915061344283612c78565b925082820190508082111561345a576134596133fd565b5b92915050565b600061346b82612c78565b91507fffffffffffffffffffffffffffffffffffffffffffffffffffffffffffffffff820361349d5761349c6133fd565b5b600182019050919050565b7f4e487b7100000000000000000000000000000000000000000000000000000000600052603260045260246000fd5b7f4f6e6c79206974656d206f776e65722063616e20706572666f726d207468697360008201527f206f7065726174696f6e00000000000000000000000000000000000000000000602082015250565b6000613533602a83612bd1565b915061353e826134d7565b604082019050919050565b6000602082019050818103600083015261356281613526565b9050919050565b7f5072696365206d75737420626520657175616c20746f206c697374696e67207060008201527f7269636500000000000000000000000000000000000000000000000000000000602082015250565b60006135c5602483612bd1565b91506135d082613569565b604082019050919050565b600060208201905081810360008301526135f4816135b8565b9050919050565b600061360682612c78565b915061361183612c78565b9250828203905081811115613629576136286133fd565b5b92915050565b7f6f6e6c79206f776e6572206f6620746865206d61726b6574706c61636520636160008201527f6e206368616e676520746865206c697374696e67207072696365000000000000602082015250565b600061368b603a83612bd1565b91506136968261362f565b604082019050919050565b600060208201905081810360008301526136ba8161367e565b9050919050565b7f506c65617365207375626d6974207468652061736b696e67207072696365206960008201527f6e206f7264657220746f20636f6d706c65746520746865207075726368617365602082015250565b600061371d604083612bd1565b9150613728826136c1565b604082019050919050565b6000602082019050818103600083015261374c81613710565b9050919050565b600081905092915050565b600061376982612bc6565b6137738185613753565b9350613783818560208601612be2565b80840191505092915050565b600061379b828561375e565b91506137a7828461375e565b91508190509392505050565b60008190508160005260206000209050919050565b60006020601f8301049050919050565b600082821b905092915050565b6000600883026138157fffffffffffffffffffffffffffffffffffffffffffffffffffffffffffffffff826137d8565b61381f86836137d8565b95508019841693508086168417925050509392505050565b6000819050919050565b600061385c61385761385284612c78565b613837565b612c78565b9050919050565b6000819050919050565b61387683613841565b61388a61388282613863565b8484546137e5565b825550505050565b600090565b61389f613892565b6138aa81848461386d565b505050565b5b818110156138ce576138c3600082613897565b6001810190506138b0565b5050565b601f821115613913576138e4816137b3565b6138ed846137c8565b810160208510156138fc578190505b613910613908856137c8565b8301826138af565b50505b505050565b600082821c905092915050565b600061393660001984600802613918565b1980831691505092915050565b600061394f8383613925565b9150826002028217905092915050565b61396882612bc6565b67ffffffffffffffff81111561398157613980612fcf565b5b61398b8254613395565b6139968282856138d2565b600060209050601f8311600181146139c957600084156139b7578287015190505b6139c18582613943565b865550613a29565b601f1984166139d7866137b3565b60005b828110156139ff578489015182556001820191506020850194506020810190506139da565b86831015613a1c5784890151613a18601f891682613925565b8355505b6001600288020188555050505b505050505050565b7f5072696365206d75737420626520616c206c6573742031000000000000000000600082015250565b6000613a67601783612bd1565b9150613a7282613a31565b602082019050919050565b60006020820190508181036000830152613a9681613a5a565b9050919050565b7f50726963206d75737420626520657175616c20746f206c697374696e6720707260008201527f6963650000000000000000000000000000000000000000000000000000000000602082015250565b6000613af9602383612bd1565b9150613b0482613a9d565b604082019050919050565b60006020820190508181036000830152613b2881613aec565b9050919050565b6000608082019050613b446000830187612d0d565b613b516020830186612d0d565b613b5e6040830185612da3565b613b6b6060830184612b9c565b95945050505050565b7f436f756e7465723a2064656372656d656e74206f766572666c6f770000000000600082015250565b6000613baa601b83612bd1565b9150613bb582613b74565b602082019050919050565b60006020820190508181036000830152613bd981613b9d565b9050919050565b600081519050919050565b600082825260208201905092915050565b6000613c0782613be0565b613c118185613beb565b9350613c21818560208601612be2565b613c2a81612c0c565b840191505092915050565b6000608082019050613c4a6000830187612d0d565b613c576020830186612d0d565b613c646040830185612da3565b8181036060830152613c768184613bfc565b905095945050505050565b600081519050613c9081612b37565b92915050565b600060208284031215613cac57613cab612b01565b5b6000613cba84828501613c81565b91505092915050565b6000604082019050613cd86000830185612d0d565b613ce56020830184612da3565b9392505050565b7f4e487b7100000000000000000000000000000000000000000000000000000000600052601260045260246000fdfea2646970667358221220b134b3b3187398e5d9c484cf7308e2e7941b19a1d698d697f7222ca7ff6c2b2064736f6c63430008130033",
  "linkReferences": {},
  "deployedLinkReferences": {}
}